{
  "abi": [
    {
      "anonymous": false,
      "inputs": [
        {
          "indexed": true,
          "internalType": "address",
          "name": "owner",
          "type": "address"
        },
        {
          "indexed": true,
          "internalType": "address",
          "name": "operator",
          "type": "address"
        },
        {
          "indexed": false,
          "internalType": "bool",
          "name": "approved",
          "type": "bool"
        }
      ],
      "name": "ApprovalForAll",
      "type": "event"
    },
    {
      "anonymous": false,
      "inputs": [
        {
          "indexed": true,
          "internalType": "address",
          "name": "previousOwner",
          "type": "address"
        },
        {
          "indexed": true,
          "internalType": "address",
          "name": "newOwner",
          "type": "address"
        }
      ],
      "name": "OwnershipTransferred",
      "type": "event"
    },
    {
      "anonymous": false,
      "inputs": [
        {
          "indexed": true,
          "internalType": "address",
          "name": "operator",
          "type": "address"
        },
        {
          "indexed": true,
          "internalType": "address",
          "name": "from",
          "type": "address"
        },
        {
          "indexed": true,
          "internalType": "address",
          "name": "to",
          "type": "address"
        },
        {
          "indexed": false,
          "internalType": "uint256[]",
          "name": "ids",
          "type": "uint256[]"
        },
        {
          "indexed": false,
          "internalType": "uint256[]",
          "name": "amounts",
          "type": "uint256[]"
        }
      ],
      "name": "TransferBatch",
      "type": "event"
    },
    {
      "anonymous": false,
      "inputs": [
        {
          "indexed": true,
          "internalType": "address",
          "name": "operator",
          "type": "address"
        },
        {
          "indexed": true,
          "internalType": "address",
          "name": "from",
          "type": "address"
        },
        {
          "indexed": true,
          "internalType": "address",
          "name": "to",
          "type": "address"
        },
        {
          "indexed": false,
          "internalType": "uint256",
          "name": "id",
          "type": "uint256"
        },
        {
          "indexed": false,
          "internalType": "uint256",
          "name": "amount",
          "type": "uint256"
        }
      ],
      "name": "TransferSingle",
      "type": "event"
    },
    {
      "anonymous": false,
      "inputs": [
        {
          "indexed": false,
          "internalType": "string",
          "name": "value",
          "type": "string"
        },
        {
          "indexed": true,
          "internalType": "uint256",
          "name": "id",
          "type": "uint256"
        }
      ],
      "name": "URI",
      "type": "event"
    },
    {
      "inputs": [
        {
          "internalType": "string",
          "name": "_episodeURI",
          "type": "string"
        }
      ],
      "name": "addEpisode",
      "outputs": [],
      "stateMutability": "nonpayable",
      "type": "function"
    },
    {
      "inputs": [
        {
          "internalType": "address",
          "name": "",
          "type": "address"
        },
        {
          "internalType": "uint256",
          "name": "",
          "type": "uint256"
        }
      ],
      "name": "balanceOf",
      "outputs": [
        {
          "internalType": "uint256",
          "name": "",
          "type": "uint256"
        }
      ],
      "stateMutability": "view",
      "type": "function"
    },
    {
      "inputs": [
        {
          "internalType": "address[]",
          "name": "owners",
          "type": "address[]"
        },
        {
          "internalType": "uint256[]",
          "name": "ids",
          "type": "uint256[]"
        }
      ],
      "name": "balanceOfBatch",
      "outputs": [
        {
          "internalType": "uint256[]",
          "name": "balances",
          "type": "uint256[]"
        }
      ],
      "stateMutability": "view",
      "type": "function"
    },
    {
      "inputs": [
        {
          "internalType": "address",
          "name": "",
          "type": "address"
        },
        {
          "internalType": "address",
          "name": "",
          "type": "address"
        }
      ],
      "name": "isApprovedForAll",
      "outputs": [
        {
          "internalType": "bool",
          "name": "",
          "type": "bool"
        }
      ],
      "stateMutability": "view",
      "type": "function"
    },
    {
      "inputs": [],
      "name": "latestEpisodeID",
      "outputs": [
        {
          "internalType": "uint256",
          "name": "",
          "type": "uint256"
        }
      ],
      "stateMutability": "view",
      "type": "function"
    },
    {
      "inputs": [
        {
          "internalType": "address",
          "name": "_member",
          "type": "address"
        }
      ],
      "name": "mintNFT",
      "outputs": [],
      "stateMutability": "nonpayable",
      "type": "function"
    },
    {
      "inputs": [],
      "name": "owner",
      "outputs": [
        {
          "internalType": "address",
          "name": "",
          "type": "address"
        }
      ],
      "stateMutability": "view",
      "type": "function"
    },
    {
      "inputs": [],
      "name": "renounceOwnership",
      "outputs": [],
      "stateMutability": "nonpayable",
      "type": "function"
    },
    {
      "inputs": [
        {
          "internalType": "address",
          "name": "from",
          "type": "address"
        },
        {
          "internalType": "address",
          "name": "to",
          "type": "address"
        },
        {
          "internalType": "uint256[]",
          "name": "ids",
          "type": "uint256[]"
        },
        {
          "internalType": "uint256[]",
          "name": "amounts",
          "type": "uint256[]"
        },
        {
          "internalType": "bytes",
          "name": "data",
          "type": "bytes"
        }
      ],
      "name": "safeBatchTransferFrom",
      "outputs": [],
      "stateMutability": "nonpayable",
      "type": "function"
    },
    {
      "inputs": [
        {
          "internalType": "address",
          "name": "from",
          "type": "address"
        },
        {
          "internalType": "address",
          "name": "to",
          "type": "address"
        },
        {
          "internalType": "uint256",
          "name": "id",
          "type": "uint256"
        },
        {
          "internalType": "uint256",
          "name": "amount",
          "type": "uint256"
        },
        {
          "internalType": "bytes",
          "name": "data",
          "type": "bytes"
        }
      ],
      "name": "safeTransferFrom",
      "outputs": [],
      "stateMutability": "nonpayable",
      "type": "function"
    },
    {
      "inputs": [
        {
          "internalType": "address",
          "name": "operator",
          "type": "address"
        },
        {
          "internalType": "bool",
          "name": "approved",
          "type": "bool"
        }
      ],
      "name": "setApprovalForAll",
      "outputs": [],
      "stateMutability": "nonpayable",
      "type": "function"
    },
    {
      "inputs": [
        {
          "internalType": "bytes4",
          "name": "interfaceId",
          "type": "bytes4"
        }
      ],
      "name": "supportsInterface",
      "outputs": [
        {
          "internalType": "bool",
          "name": "",
          "type": "bool"
        }
      ],
      "stateMutability": "view",
      "type": "function"
    },
    {
      "inputs": [
        {
          "internalType": "address",
          "name": "newOwner",
          "type": "address"
        }
      ],
      "name": "transferOwnership",
      "outputs": [],
      "stateMutability": "nonpayable",
      "type": "function"
    },
    {
      "inputs": [
        {
          "internalType": "uint256",
          "name": "_episodeID",
          "type": "uint256"
        },
        {
          "internalType": "string",
          "name": "_episodeURI",
          "type": "string"
        }
      ],
      "name": "updateUriEpisode",
      "outputs": [
        {
          "internalType": "bool",
          "name": "",
          "type": "bool"
        }
      ],
      "stateMutability": "nonpayable",
      "type": "function"
    },
    {
      "inputs": [
        {
          "internalType": "uint256",
          "name": "_episodeID",
          "type": "uint256"
        }
      ],
      "name": "uri",
      "outputs": [
        {
          "internalType": "string",
          "name": "",
          "type": "string"
        }
      ],
      "stateMutability": "view",
      "type": "function"
    },
    {
      "inputs": [
        {
          "internalType": "uint256",
          "name": "",
          "type": "uint256"
        }
      ],
      "name": "uris",
      "outputs": [
        {
          "internalType": "string",
          "name": "",
          "type": "string"
        }
      ],
      "stateMutability": "view",
      "type": "function"
    }
  ],
  "bytecode": {
    "object": "0x6080604052600060045534801561001557600080fd5b5061001f33610024565b610076565b600280546001600160a01b038381166001600160a01b0319831681179093556040519116919082907f8be0079c531659141344cd1fd0a4f28419497f9722a3daafe3b4186f6b6457e090600090a35050565b611098806100856000396000f3fe608060405234801561001057600080fd5b50600436106100ff5760003560e01c806355b2808011610097578063a8ba0ab911610066578063a8ba0ab914610234578063e985e9c514610247578063f242432a14610275578063f2fde38b1461028b57600080fd5b806355b28080146101f5578063715018a6146101fe5780638da5cb5b14610206578063a22cb4651461022157600080fd5b806325089f6e116100d357806325089f6e146101955780632eb2c2d6146101a85780634e1273f4146101c257806354ba0f27146101e257600080fd5b8062fdd58e1461010457806301ffc9a71461013f5780630e89341c146101625780631253c54614610182575b600080fd5b61012c61011236600461096b565b600060208181529281526040808220909352908152205481565b6040519081526020015b60405180910390f35b61015261014d3660046109ab565b61029e565b6040519015158152602001610136565b6101756101703660046109cf565b6102f0565b6040516101369190610a2e565b6101756101903660046109cf565b610392565b6101526101a3366004610ae4565b61042c565b6101c06101b6366004610bb9565b5050505050505050565b005b6101d56101d0366004610c74565b6104a8565b6040516101369190610ce0565b6101c06101f0366004610d24565b6105dd565b61012c60045481565b6101c0610606565b6002546040516001600160a01b039091168152602001610136565b6101c061022f366004610d3f565b61061a565b6101c0610242366004610d7b565b610686565b610152610255366004610db8565b600160209081526000928352604080842090915290825290205460ff1681565b6101c0610283366004610deb565b505050505050565b6101c0610299366004610d24565b6106c2565b60006301ffc9a760e01b6001600160e01b0319831614806102cf5750636cdb3d1360e11b6001600160e01b03198316145b806102ea57506303a24d0760e21b6001600160e01b03198316145b92915050565b600081815260036020526040902080546060919061030d90610e63565b80601f016020809104026020016040519081016040528092919081815260200182805461033990610e63565b80156103865780601f1061035b57610100808354040283529160200191610386565b820191906000526020600020905b81548152906001019060200180831161036957829003601f168201915b50505050509050919050565b600360205260009081526040902080546103ab90610e63565b80601f01602080910402602001604051908101604052809291908181526020018280546103d790610e63565b80156104245780601f106103f957610100808354040283529160200191610424565b820191906000526020600020905b81548152906001019060200180831161040757829003601f168201915b505050505081565b6000610436610738565b6004548311156104865760405162461bcd60e51b815260206004820152601660248201527534b73b30b634b21032b834b9b7b23290373ab6b132b960511b60448201526064015b60405180910390fd5b600083815260036020526040902061049e8382610ee8565b5060019392505050565b60608382146104eb5760405162461bcd60e51b815260206004820152600f60248201526e0988a9c8ea890be9a92a69a82a8869608b1b604482015260640161047d565b8367ffffffffffffffff81111561050457610504610a41565b60405190808252806020026020018201604052801561052d578160200160208202803683370190505b50905060005b848110156105d45760008087878481811061055057610550610fa8565b90506020020160208101906105659190610d24565b6001600160a01b03166001600160a01b03168152602001908152602001600020600085858481811061059957610599610fa8565b905060200201358152602001908152602001600020548282815181106105c1576105c1610fa8565b6020908102919091010152600101610533565b50949350505050565b6105e5610738565b61060381600454600160405180602001604052806000815250610792565b50565b61060e610738565b61061860006108fd565b565b3360008181526001602090815260408083206001600160a01b03871680855290835292819020805460ff191686151590811790915590519081529192917f17307eab39ab6107e8899845ad3d59bd9653f200f220920489ca2b5937696c31910160405180910390a35050565b61068e610738565b6004805490600061069e83610fd4565b909155505060045460009081526003602052604090206106be8282610ee8565b5050565b6106ca610738565b6001600160a01b03811661072f5760405162461bcd60e51b815260206004820152602660248201527f4f776e61626c653a206e6577206f776e657220697320746865207a65726f206160448201526564647265737360d01b606482015260840161047d565b610603816108fd565b6002546001600160a01b031633146106185760405162461bcd60e51b815260206004820181905260248201527f4f776e61626c653a2063616c6c6572206973206e6f7420746865206f776e6572604482015260640161047d565b6001600160a01b038416600090815260208181526040808320868452909152812080548492906107c3908490610fed565b909155505060408051848152602081018490526001600160a01b0386169160009133917fc3d58168c5ae7397731d063d5bbf3d657854427343f4c083240f7aacaa2d0f62910160405180910390a46001600160a01b0384163b156108ab5760405163f23a6e6160e01b808252906001600160a01b0386169063f23a6e6190610858903390600090899089908990600401611000565b6020604051808303816000875af1158015610877573d6000803e3d6000fd5b505050506040513d601f19601f8201168201806040525081019061089b9190611045565b6001600160e01b031916146108b8565b6001600160a01b03841615155b6108f75760405162461bcd60e51b815260206004820152601060248201526f155394d0519157d49150d2541251539560821b604482015260640161047d565b50505050565b600280546001600160a01b038381166001600160a01b0319831681179093556040519116919082907f8be0079c531659141344cd1fd0a4f28419497f9722a3daafe3b4186f6b6457e090600090a35050565b80356001600160a01b038116811461096657600080fd5b919050565b6000806040838503121561097e57600080fd5b6109878361094f565b946020939093013593505050565b6001600160e01b03198116811461060357600080fd5b6000602082840312156109bd57600080fd5b81356109c881610995565b9392505050565b6000602082840312156109e157600080fd5b5035919050565b6000815180845260005b81811015610a0e576020818501810151868301820152016109f2565b506000602082860101526020601f19601f83011685010191505092915050565b6020815260006109c860208301846109e8565b634e487b7160e01b600052604160045260246000fd5b600082601f830112610a6857600080fd5b813567ffffffffffffffff80821115610a8357610a83610a41565b604051601f8301601f19908116603f01168101908282118183101715610aab57610aab610a41565b81604052838152866020858801011115610ac457600080fd5b836020870160208301376000602085830101528094505050505092915050565b60008060408385031215610af757600080fd5b82359150602083013567ffffffffffffffff811115610b1557600080fd5b610b2185828601610a57565b9150509250929050565b60008083601f840112610b3d57600080fd5b50813567ffffffffffffffff811115610b5557600080fd5b6020830191508360208260051b8501011115610b7057600080fd5b9250929050565b60008083601f840112610b8957600080fd5b50813567ffffffffffffffff811115610ba157600080fd5b602083019150836020828501011115610b7057600080fd5b60008060008060008060008060a0898b031215610bd557600080fd5b610bde8961094f565b9750610bec60208a0161094f565b9650604089013567ffffffffffffffff80821115610c0957600080fd5b610c158c838d01610b2b565b909850965060608b0135915080821115610c2e57600080fd5b610c3a8c838d01610b2b565b909650945060808b0135915080821115610c5357600080fd5b50610c608b828c01610b77565b999c989b5096995094979396929594505050565b60008060008060408587031215610c8a57600080fd5b843567ffffffffffffffff80821115610ca257600080fd5b610cae88838901610b2b565b90965094506020870135915080821115610cc757600080fd5b50610cd487828801610b2b565b95989497509550505050565b6020808252825182820181905260009190848201906040850190845b81811015610d1857835183529284019291840191600101610cfc565b50909695505050505050565b600060208284031215610d3657600080fd5b6109c88261094f565b60008060408385031215610d5257600080fd5b610d5b8361094f565b915060208301358015158114610d7057600080fd5b809150509250929050565b600060208284031215610d8d57600080fd5b813567ffffffffffffffff811115610da457600080fd5b610db084828501610a57565b949350505050565b60008060408385031215610dcb57600080fd5b610dd48361094f565b9150610de26020840161094f565b90509250929050565b60008060008060008060a08789031215610e0457600080fd5b610e0d8761094f565b9550610e1b6020880161094f565b94506040870135935060608701359250608087013567ffffffffffffffff811115610e4557600080fd5b610e5189828a01610b77565b979a9699509497509295939492505050565b600181811c90821680610e7757607f821691505b602082108103610e9757634e487b7160e01b600052602260045260246000fd5b50919050565b601f821115610ee357600081815260208120601f850160051c81016020861015610ec45750805b601f850160051c820191505b8181101561028357828155600101610ed0565b505050565b815167ffffffffffffffff811115610f0257610f02610a41565b610f1681610f108454610e63565b84610e9d565b602080601f831160018114610f4b5760008415610f335750858301515b600019600386901b1c1916600185901b178555610283565b600085815260208120601f198616915b82811015610f7a57888601518255948401946001909101908401610f5b565b5085821015610f985787850151600019600388901b60f8161c191681555b5050505050600190811b01905550565b634e487b7160e01b600052603260045260246000fd5b634e487b7160e01b600052601160045260246000fd5b600060018201610fe657610fe6610fbe565b5060010190565b808201808211156102ea576102ea610fbe565b6001600160a01b03868116825285166020820152604081018490526060810183905260a06080820181905260009061103a908301846109e8565b979650505050505050565b60006020828403121561105757600080fd5b81516109c88161099556fea264697066735822122013c07a7c1410d73111a01bc8e92899e03d0f48d53c555de4818cb55f1448453464736f6c63430008110033",
    "linkReferences": {}
  },
  "methodIdentifiers": {
    "addEpisode(string)": "a8ba0ab9",
    "balanceOf(address,uint256)": "00fdd58e",
    "balanceOfBatch(address[],uint256[])": "4e1273f4",
    "isApprovedForAll(address,address)": "e985e9c5",
    "latestEpisodeID()": "55b28080",
    "mintNFT(address)": "54ba0f27",
    "owner()": "8da5cb5b",
    "renounceOwnership()": "715018a6",
    "safeBatchTransferFrom(address,address,uint256[],uint256[],bytes)": "2eb2c2d6",
    "safeTransferFrom(address,address,uint256,uint256,bytes)": "f242432a",
    "setApprovalForAll(address,bool)": "a22cb465",
    "supportsInterface(bytes4)": "01ffc9a7",
    "transferOwnership(address)": "f2fde38b",
    "updateUriEpisode(uint256,string)": "25089f6e",
    "uri(uint256)": "0e89341c",
    "uris(uint256)": "1253c546"
  },
  "id": 14
}